:020000040800F2
:100000005010002061850008DD7E0008DF7E0008BA
:1000100000000000000000000000000000000000E0
:10002000000000000000000000000000E17E000869
:100030000000000000000000E37E0008E57E0008EC
:100040009F400008D74A00087F5D0008B77100088C
:10005000C7710008EF71000803720008B37300084D
:10006000D7770008EF770008F17E00087783000853
:1000700097840008FF7E00080785000813850008A4
:100080000D7F00081B7F000800000000297F00088A
:10009000377F0008457F0008537F000879850008F6
:1000A0007B8500087D8500087F850008617F00084A
:1000B000797F0008000000008185000810B5006805
:1000C000524988422ED1524801F048FA514801F075
:1000D00045FA514801F042FA504801F03FFA01F068
:1000E0002BFC4F4801F03EFD4E4801F03BFD4E4CCD
:1000F00021883C2909DB01F056FE4C4801F05CFEEA
:100100004B4801F059FE002100E0491C2180618824
:10011000B42905DB474801F01BFF0021618010BDB9
:10012000491CFBE74449884202D102F0F1F810BDB6
:100130004249884203D1424801F022FC10BD4149A6
:100140008842ECD14048F7E710B504003F488442AC
:1001500001D102F0A3FA3E48844201D102F03AF8FC
:1001600010BD10B504003948844201D102F09AFA5A
:100170003748844201D102F05DF810BD10B504008B
:10018000206808210162022101620421016201212B
:1001900001622E48844201D102F01DFA2C488442AB
:1001A00003D186212B4801F047F810BD0A0000D189
:1001B000704710B4284A1378FF2B24D1002302295A
:1001C00014DB44785470032912DB8478947004297A
:1001D00010DBC478D47005290EDB047914710DDDB1
:1001E0004479547106290BDD837909E000215170AF
:1001F000002191700021D1700021117100215171F5
:1002000093710078107010BC70470000002C014002
:10021000C4030020DC030020F40300200C040020B1
:100220007400002098000020440C0020C40200202C
:10023000F40200202403002000400140004401405B
:1002400078030020004801403C030020640800209F
:10025000EC08002004780008BC0000208CB002F0FC
:1002600083FC00F095FF02F01DFE002803D0B321AF
:10027000984800F0E1FF0021974801F021FC00219F
:10028000964801F01DFC02F053FE02F0F5FE02F06C
:100290000BFF02F029FF02F0DDFF03F017F803F077
:1002A00053F803F08BF803F0B1F803F0C7F803F04C
:1002B00001F903F01FF9D34803F053FA002803D0E3
:1002C000C721844800F0B8FFCF4803F04AFA00285D
:1002D00003D0CB217F4800F0AFFFCC4803F065FA94
:1002E000002803D0CF217B4800F0A6FFC84803F0C8
:1002F0005CFA002803D0D321764800F09DFFC54862
:1003000003F053FA002803D0D721724800F094FF7D
:10031000C14803F026FA002803D0DB216D4800F025
:100320008BFFBE4803F041FA002803D0DF21694863
:1003300000F082FF02F0F4F802F0D6F802F04BF978
:10034000B74803F0CAFCB74803F0C7FCB64801F051
:1003500064FEB64CB64A802189002000083003F0C4
:1003600089FD2000083003F0ABFD81B22000083089
:1003700002F06EF9AF480B90AF480A90AF48099071
:10038000AF480890AF480790AF48069045E0012D70
:1003900005D1D84801F010F9D74801F003F9002140
:1003A000D64801F0EAFC0021D54801F0E6FC8025A2
:1003B000AD00D44A29002000083003F05BFD200086
:1003C000083003F07DFD81B22000083002F040F9D2
:1003D000CD4801F078F9CD4801F075F9CA4801F02F
:1003E000A3FA0028FAD0C94801F09EFA0028F5D0F7
:1003F000C04801F0E1F8C04801F0DEF8C44A290025
:100400002000083003F036FD2000083003F058FDCE
:1004100081B22000083002F01BF92078FF28FCD0C0
:1004200072B603A82100072203F08EFD6846007B08
:1004300003A94E788D78CF780979029103A949797B
:10044000059103A989796A461170FF21217062B66E
:10045000B04902E000BF0199491E019101990029AC
:10046000F8D1002826D001283AD0022800D153E143
:10047000032800D1C2E2042800D173E30A2800D186
:10048000E5E30B2801D100F0F4FB0C2801D100F0CA
:10049000FBFB372801D100F00DFC4D2801D100F005
:1004A00033FC582801D100F0DFFC632801D100F0B3
:1004B00049FDB2E7D04801F07FF8D04801F07CF860
:1004C000002D00D063E78B4801F06CF88A4801F0FA
:1004D00073F864E704780008740000209800002096
:1004E000C54801F069F8C54801F066F800214E489A
:1004F00001F0ACFD3002054368468580012F05D828
:100500007C4801F04FF87C4801F056F80298012829
:1005100002D1434803F00FFC0021794801F02DFC83
:10052000764D0021280001F028FC8026B600B44A50
:1005300031002000083003F09DFC2000083003F05B
:10054000BFFC81B22000083002F082F86E4801F052
:10055000BAF86E4801F0B7F86B4801F0E5F90028E9
:10056000FAD06A4801F0E0F90028F5D0D14A31000C
:100570002000083003F07EFC68468188284803F09C
:1005800013FC07009C4801F00DF8380000D08AE009
:1005900000226846808801B2280001F0E4FB2800B0
:1005A00001F0F1FB284601F0F2FBFF28FAD0C24D22
:1005B00000284BD10021514801F0DFFBBF4F38002C
:1005C00001F0C7FA03004D490220085E00902A009E
:1005D00031002000083003F04DFC2000083003F00B
:1005E0006FFC81B22000083002F032F8380001F0D0
:1005F000B0FA03004148428868468188084803F001
:10060000D2FA0AE7040A00204C0A0020DC0A002083
:10061000240B00206C0B0020BC0900207409002072
:10062000340000205400002024030020BC000020DF
:1006300020780008547B00082C7B0008007B000811
:10064000D07A0008847B0008B87B00089B4801F042
:1006500080FA2A4A0221515E009103002A002832C2
:1006600031002000083003F005FC2000083003F0C2
:1006700027FC81B22000083001F0EAFF5E4800F05C
:100680009BFF5E4800F098FF1A4800F095FF1A485B
:1006900000F092FF0021194801F06FFB002118487B
:1006A00001F06BFBB9E63A000121174801F005F8AB
:1006B000154840880028FBD1C84802E000BF0098D8
:1006C000401E009000980028F8D13B006A886846D8
:1006D0008188C34803F067FA784801F03AFA0221AA
:1006E000695E00910300BF4A31002000083003F02A
:1006F000C1FB89E6F40300200C040020C4020020A2
:10070000F4020020307800083C0300207803002029
:1007100040780008C0D40100374800F04DFF37484A
:1007200000F04AFF3002054368468580390202988E
:1007300008436946C8806846C08801B2AA4801F0EB
:1007400085FC0599012905D8A84800F02BFFA84889
:1007500000F032FF68460078012802D1A04803F07B
:10076000EAFAA44D0021280001F007FB0021A2486D
:1007700001F003FB8026B600E04A3100200008307B
:1007800003F078FB2000083003F09AFB81B22000D0
:10079000083001F05DFFDA4800F095FFD94800F01D
:1007A00092FFD74801F0C0F80028FAD0D54801F0F0
:1007B000BBF80028F5D0D44A31002000083003F0FF
:1007C00059FB0D4800F0EEFE68468188844803F02E
:1007D000EBFA070063D100226846808801B2280046
:1007E00001F0C1FA280001F0CEFA280001F0CFFA9A
:1007F000FF28FAD0304F05E0C4030020DC030020BE
:100800004C780008002825D10021284601F0B5FACF
:100810002A4801F09EF90221695E009103003A0026
:100820007C3231002000083003F024FB2000083027
:1008300003F046FB81B22000083001F009FF1F4899
:1008400001F087F903006A8868468188644803F0EC
:10085000AAF959E0194801F07CF90221695E00917A
:100860000300089A31002000083003F003FB200049
:10087000083003F025FB81B22000083001F0E8FECB
:10088000B54800F099FEB54800F096FE574800F0D4
:1008900093FE574800F090FE00212846FCE63A00FF
:1008A0000121974800F009FF954840880028FBD1B6
:1008B0004A4808E060780008287A000874000020A0
:1008C00000BF0098401E009000980028F8D13B001F
:1008D0006A8868468188424803F065F9A04801F0BB
:1008E00038F90221695E00910300099A3100200065
:1008F000083003F0BFFA2000083003F0E1FA81B2BB
:100900002000083001F0A4FE944800F04BFE364869
:1009100001F0A0FB82B26846C188808803F084FBA6
:100920000090354F6846808802B2009909B23800BD
:1009300001F019FA380001F026FA384601F027FADA
:10094000FF28FAD000281FD10021384601F015FAFF
:10095000D64D280001F0FDF803007A8868468188AA
:100960000098091889B2D24803F01DF9280001F057
:10097000F0F80222B95E009103000A9A31002000CB
:10098000083003F077FA3FE5C84801F0E2F80222A8
:10099000B95E009103000B9A31002000083003F08B
:1009A00069FA2000083003F08BFA81B22000083089
:1009B00001F04EFE684800F0FFFD684800F0FCFDC5
:1009C0000A4800F0F9FD0A4800F0F6FD0021280071
:1009D00001F0D3F90021384662E600BF401640001E
:1009E000340000207C7A000824030020F403002057
:1009F0000C040020C4020020F4020020564800F03D
:100A0000DBFD564800F0D8FDB74800F0D5FDB748EB
:100A100000F0D2FD30020543684685803902029815
:100A200008436946C880B24E0021300001F00EFB39
:100A30000021B04801F0A1F9AF4D0021280001F0DC
:100A40009CF98027BF00AD4A39002000083003F030
:100A500011FA2000083003F033FA81B22000083088
:100A600001F0F6FD264800F02EFE264800F02BFE91
:100A7000234800F059FF0028FAD0224800F054FF24
:100A80000028F5D09E4A39002000083003F0F2F922
:100A90002000083003F014FA81B22000083001F081
:100AA000D7FD2D4800F07EFD2C4800F07BFD684608
:100AB0008188944803F078F969460880300001F095
:100AC000C9FA82B26846C188808803F0ADFA6946E7
:100AD0008988091889B2764803F066F906006846E5
:100AE0000088002801D0300010D11B4800F064FDC0
:100AF0001A4800F061FDD64A390081E47078000898
:100B00003C030020780300208478000868460288AF
:100B10000121D04800F0D1FD32000121CE4800F083
:100B2000CCFDCC4840880028FBD1CB484088002829
:100B3000F7D15E4801F00DF80600094801F009F808
:100B40000221695E019100960300079A3900200096
:100B5000083003F08FF957E4C4030020DC030020C1
:100B600074000020BD4800F027FDBD4800F024FDC2
:100B700000215F4801F06AFA3002054368460580AB
:100B80003802029F07430599012905D8564800F00D
:100B900009FD564800F010FD0021564801F0EDF81F
:100BA0000021554801F0E9F88025AD00AD4A290043
:100BB0002000083003F05EF92000083003F080F9CF
:100BC00081B22000083001F043FDA24800F07BFD17
:100BD000A14E300000F077FD9E4800F0A5FE0028F1
:100BE000FAD0300000F0A0FE0028F5D0C74A290056
:100BF0002000083003F03EF92000083003F060F9CF
:100C000081B22000083001F023FD684600880028EA
:100C100002D0924800F0C6FC380402D0904800F0A0
:100C2000C1FC6846028801218A4800F046FDBAB23C
:100C30000121304600F041FD864840880028FBD164
:100C4000304640880028F7D1B14AFFF7D8FB174853
:100C500000F07FFF0500AF4800F07BFF0095030028
:100C6000069A802189002000083003F003F9FFF77D
:100C7000CBFB204902200B5EA74A0102200008306E
:100C800003F0F8F8FFF7C0FB194902200B5ED810FB
:100C9000000FC01800110090A04A80218900200098
:100CA000083003F0E7F8FFF7AFFB00BF9800002023
:100CB000540000209A4A802189002000083003F067
:100CC000D9F82000083003F0FBF881B2200008308A
:100CD00001F020FEBFF34F8F924993480160BFF3AC
:100CE0004F8F00BFFDE700BFF40300200C0400207D
:100CF00024030020C4020020F4020020947800089D
:100D0000A478000834000020884801F09FF9534877
:100D100000F052FC524800F04FFC854800F04CFCBB
:100D2000844800F049FC0021E34801F026F8002146
:100D3000E24801F022F88027BF007F4A39002000F6
:100D4000083003F097F82000083003F0B9F881B2BA
:100D50002000083001F07CFC3E4E300000F0B3FC77
:100D60003D4D280000F0AFFC300000F0DDFD002814
:100D7000FAD0280000F0D8FD0028F5D06F4A3900DD
:100D80002000083003F076F82000083003F098F8CF
:100D900081B22000083001F05BFC694A3900200074
:100DA000083003F067F82000083003F089F881B2BA
:100DB0002000083001F04CFC284631464A88002AC1
:100DC000FCD14288002AF9D10846EA4A012100F004
:100DD00074FCE84A0121280000F06FFC304640888E
:100DE0000028FBD168880028F8D1E34A39002000A8
:100DF000083003F03FF82000083003F061F881B2BA
:100E00002000083001F024FC304600F05CFC28464D
:100E100000F059FC304600F087FD0028FAD0284643
:100E200000F082FD0028F5D0D44A390020000830B7
:100E300003F020F82000083003F042F881B22000CF
:100E4000083001F005FCCE4A3900FFF7D9FA00BF9F
:100E5000B47800083C03002078030020C40300207D
:100E6000DC030020C8780008304801F0EFF8C548DE
:100E700000F0A2FBC44800F09FFB2D4800F09CFB53
:100E80002C4800F099FB00218B4800F076FF0021F0
:100E90008A4800F072FF8025AD00BC4A290020007E
:100EA000083002F0E7FF2000083003F009F881B2B3
:100EB0002000083001F0CCFB0121164800F000FEB4
:100EC0000121D34800F0FCFDD24800F0FCFBD248E1
:100ED00000F0F9FBCF4800F027FD0028FAD0CE48FB
:100EE00000F022FD0028F5D0CC4A2900200008306F
:100EF00002F0C0FF2000083002F0E2FF81B22000C3
:100F0000083001F0A5FBC64AFFF779FADC78000843
:100F1000EC78000874000020F87800080C790008CC
:100F20002C7900080400FA050CED00E024030020F1
:100F3000F40300200C0400204079000854790008D4
:100F4000647900088025AD00B6480090B64BB74ADA
:100F500029002000083002F08DFF2000083002F048
:100F6000AFFF81B22000083001F072FB29002000A1
:100F7000083001F083F82000083002F0A1FF81B2B0
:100F80002000083001F064FB29002000083001F047
:100F9000FDFD2000083002F093FF81B220000830F0
:100FA00001F056FB29002000083003F003F8200070
:100FB000083002F085FF81B22000083001F048FBC4
:100FC0002A0021000831EF4800F058FD20000830C9
:100FD00002F076FF81B22000083001F039FB2A00D0
:100FE000210008318A4800F049FD2000083002F055
:100FF00067FF81B22000083001F02AFB2A0021009F
:1010000008312D4800F08CFE2000083002F058FF17
:1010100081B22000083001F01BFB2A0021000831BA
:10102000264800F07DFE2000083002F049FF81B222
:101030002000083001F00CFB29002000083001F0EE
:10104000E1FA2000083002F03BFF81B220000830B6
:1010500001F0FEFA2A00210008316E4800F0C6FABD
:101060002000083002F02CFF81B22000083001F08F
:10107000EFFA2A0021000831674800F0B7FA200093
:10108000083002F01DFF81B22000083001F0E0FAC4
:101090002A0021000831EA4802F06CFD20000830E7
:1010A00002F00EFF81B22000083001F0D1FA2A00D0
:1010B00021000831E34803E0C4020020F4020020CC
:1010C00002F058FD2000083002F0FAFE81B2200044
:1010D000083001F0BDFA2A0021000831EA4800F08A
:1010E00017FF2000083002F0EBFE81B2200008302C
:1010F00001F0AEFA2A0021000831224800F01CFA63
:101100002000083002F0DCFE81B22000083001F03F
:101110009FFA2A00210008311B4800F00DFA200038
:10112000083002F0CDFE81B22000083001F090FAC4
:101130002A0021000831DF4800F0FEF920000830C5
:1011400002F0BEFE81B22000083001F081FA2A00D0
:1011500021000831E84800F0EFF92000083002F0E3
:10116000AFFE81B22000083001F072FA304AFFF77A
:1011700046F900BFB80B00007479000884790008B4
:1011800098790008C4030020DC030020A47900083B
:1011900070B596B0302109A802F068FF6C460020B7
:1011A0000021002200230FC404AB07C303C30125A1
:1011B00009950A9502261196280412908000139032
:1011C0000024149409A802F06BFF002803D01949E9
:1011D000154800F031F8072000900196029403941E
:1011E0000121684603F062F9002804D0A521890096
:1011F0000D4800F021F80495069404A803F02EFA97
:10120000002803D0BD49084800F016F816B070BD9C
:10121000980000203C03002078030020BC790008DF
:10122000D07900084602000004780008E079000840
:10123000F47900088702000082B007000E0072B641
:10124000AF4800F0B9F9AF4800F0B6F9994800F09E
:10125000B3F9A94800F0B0F9AB4800F01AFAAB486E
:1012600000F017FA01F01FFAA94D8024A40018E13C
:1012700000963B00A74A21002800083002F0FAFD42
:101280002800083002F01CFE81B22800083001F06E
:1012900041FB21002800083000F0F0FE2800083053
:1012A00002F00EFE81B22800083001F033FB21006D
:1012B0002800083001F06AFC2800083002F000FE27
:1012C00081B22800083001F025FB210028000830F9
:1012D00002F070FE2800083002F0F2FD81B2280012
:1012E000083001F017FB220029000831254800F0E2
:1012F000C5FB2800083002F0E3FD81B22800083069
:1013000001F008FB220029000831834800F0B6FBF9
:101310002800083002F0D4FD81B22800083001F026
:10132000F9FA2200290008317C4800F0F9FC280075
:10133000083002F0C5FD81B22800083001F0EAFA59
:10134000220029000831764800F0EAFC2800083025
:1013500002F0B6FD81B22800083001F0DBFA21006E
:101360002800083001F04EF92800083002F0A8FDEE
:1013700081B22800083001F0CDFA2200290008319E
:10138000614801E07400002000F030F928000830C6
:1013900002F096FD81B22800083001F0BBFA22006D
:1013A00029000831594800F021F92800083002F0DE
:1013B00087FD81B22800083001F0ACFA2200290034
:1013C00008311F4802F0D6FB2800083002F078FDF3
:1013D00081B22800083001F09DFA2200290008316E
:1013E000184802F0C7FB2800083002F069FD81B2FE
:1013F0002800083001F08EFA220029000831224826
:1014000000F086FD2800083002F05AFD81B2280065
:10141000083001F07FFA220029000831384800F036
:101420008BF82800083002F04BFD81B2280008300C
:1014300001F070FA220029000831324804E000BFB0
:10144000340000205400002000F076F82800083016
:1014500002F036FD81B22800083001F05BFA22006C
:1014600029000831134800F067F82800083002F01E
:1014700027FD81B22800083001F04CFA2200290033
:1014800008311D4802E000BF2403002000F054F89A
:101490002800083002F014FD81B22800083001F065
:1014A00039FA204801F0AAF9012800D0E0E61E48E8
:1014B00005E000BFF403002000BF0098401E00902C
:1014C00000980028F8D1194A21462800083002F077
:1014D000D1FC2800083002F0F3FC81B2280008306B
:1014E00001F018FABFF34F8F114912480160BFF3A2
:1014F0004F8F00BFFDE700BF0C0400209A020000E0
:10150000C4030020DC0300203C03002078030020FB
:10151000BC000020147A000898000020C4020020BB
:10152000F402002088130000C0D40100007A0008F3
:101530000400FA050CED00E000B583B003000800DC
:1015400011005A6802921A7801921A8A00921B8935
:10155000124A02F08FFC03B000BD000010B5040079
:101560002078002818D06168491C61600C488142CD
:1015700006D3452116A0FFF75FFE207800280AD089
:101580002189E06803F0C6F9002804D14D2100BF8D
:101590000FA0FFF751FE10BD606010BD4084000831
:1015A00081A9030010B504000122218A606903F0BB
:1015B000B8F90120207010BD00B581B00021017084
:1015C0000022018A406903F0ACF901B000BD0000BF
:1015D000433A5C48575C666C6F77345C436F726566
:1015E0005C5372635C73772E6300000010B590B09B
:1015F0000300080011005A881C7E0F941C8E0E9464
:101600001C8D0D941C8C0C945C8A0B941C7C0A948D
:10161000DC8909941C7B08945C7A0794DC7A069434
:101620009C7A05940492DA7903921A7A02921A88C3
:1016300001929A8800929B79B84A02F01BFC10B084
:1016400010BD10B504000122218E606B03F069F912
:1016500000202076B2480068416A426A521A92B26B
:10166000022AFAD310BD10B50400A06B00F048FAAE
:10167000002000212172218061800121A180E36985
:101680001968A84ACA62DA6048620120C04308614A
:1016900010BD00B581B0FFF7D4FF01B000BDC1811E
:1016A00002210173C26910680421C162D160002166
:1016B00041620121C94301617047C1714280C17A11
:1016C000491CC172704700214172704770B5040017
:1016D000607A002805D0022826D00AD3032837D004
:1016E00041E0E071A5486080E07A401CE072012092
:1016F00013E0A06B00F030FA002810D02000FFF7B4
:10170000B2FFA06B00F022FA0120E071FA20C000C5
:101710006080E07A401CE0720220607223E0608802
:10172000002820D1F8211AE0A06B00F015FA00285B
:1017300008D1A06B00F012FA032060722000FFF7BE
:1017400092FF10E0608800280DD1FF21091D06E0FE
:10175000A06B00F001FA002805D08421490000BFE9
:10176000BFA0FFF769FD2088002817D160880028F6
:1017700014D1E26910686B49C162D16000224262F3
:101780000122D2430261606940186061AF4988421A
:1017900002D32000FFF755FF002070BD00256561D2
:1017A000207A002806D0022872D057D3032800D10F
:1017B00083E02FE00022218E606B03F0B2F8012657
:1017C000267657480068416A426A521A92B2012A44
:1017D000FAD960882080E07AA072A680A179E079A9
:1017E00088420ED0A071207404202073E269106832
:1017F0006149C162D16045620121C9430161012093
:1018000070BDA06B00F082F9A1882088814223D3AB
:1018100003202072A5882800FA267600B04200D95D
:1018200030000021FF22A232002303F08DF832465F
:10183000002303F0A2F8D02149004118844803F0A6
:10184000F3F8217A01295CD1B54260D2A16B897A83
:1018500000295CD16D1C59E02672DBE7E07AA17AA1
:1018600088420BD0A279E1798A4204D02572258082
:101870000120A08002E061882180A072A0882188D8
:101880008842C5D2FA2149008842C3D30220C0E76A
:10189000E07AA17A88420BD0A279E1798A4204D019
:1018A000257225800120A08002E061882180A0723D
:1018B000A08821888842ADD3AAE720880028A9D132
:1018C000A06B00F01DF90120C043A27AE17A8A42A0
:1018D00008D02572E1690A680223D362CB605562A1
:1018E000106118E000212172218061800121A18016
:1018F000E1690A680B4BD362CB605562106100202E
:1019000070BD032903D1022D01DB6D1EA58081B2BC
:101910002000FFF7C4FE012070BD0000DC7B000842
:101920004C0A002088130000407A032801D10120CE
:10193000704700207047000010B5464C207E0028FC
:1019400003D15420205C002809D08021424802F0B5
:10195000E1FF002803D17820215C491C00E0002130
:1019600078202154205C212805DBD221490000BFCA
:101970003BA0FFF761FC10BD50C30000204E0000EB
:1019800010B50400207B002843D0022804D015D3D2
:10199000042842D024D310BD0122218C606A02F0B9
:1019A000C0FF01202073E26910680421C162D16088
:1019B000002141620121C943016110BD0022218C37
:1019C000606A02F0AEFF03202073E089E2691168CB
:1019D000C862D060002048620120C043086110BD89
:1019E00000202073608A002801D0401E26E0607A23
:1019F000032808D1A06B00F08EF8002803D0200047
:101A0000FFF731FE10BD2088002802D02088401E3C
:101A100020802000FFF75AFE10BD00202073227C9A
:101A2000218DE06A02F07DFF0C480068416A426A3D
:101A3000521A92B2022AFAD3A02040006082962164
:101A400009012000FFF72BFE10BD000041420F00EE
:101A500040420F003C030020000400484C0A0020D4
:101A6000433A5C48575C666C6F77345C436F7265D1
:101A70005C5372635C737465702E630000B58BB049
:101A80000300080011001A6A0A925A8B09921A8BF5
:101A90000892DA8A07929A8A06929A7C05921A8AA2
:101AA0000492DA6803929A7A02921A8901925A6829
:101AB00000921B788F4A02F0DDF90BB000BD0000E8
:101AC00030B581B005000C00291D286A01F095F899
:101AD000002C0ED0FF2068600120A872FF21286A28
:101AE00001F014F9002804D0532100BF84A0FFF7AF
:101AF000A3FB6868FF2801D10120A87201B030BDA6
:101B0000FF218174002101820181704781740021CD
:101B1000018201817047C17A002904D1017800292E
:101B200001D001207047817C002905D1C1680129BD
:101B30000ADB491EC16007E0012905D1C2686E4970
:101B40008A4201DA521CC260002070470121C17232
:101B50007047C06880B27047007870470021C1604C
:101B60007047000070B504000125618BE06902F048
:101B7000D1FE002805D0E08AA28A012191400143CC
:101B800004E0E18AA28A012090408143E182032699
:101B9000A08A401C3040A08200D0A4E0A07CFF2896
:101BA00000D1A0E0E18A002917D1228B0F2A19D099
:101BB000218A5248814202DA208A401C20822089F0
:101BC0000A2846DD2078002841D1A07C00283ED19B
:101BD000E08A0F282CD165602DE00F29E8D1228BF7
:101BE000002AE5D1218301280CD16168491C208994
:101BF000401C20816160206A01F088F8002814D020
:101C000083210FE0002810D1616800290DD0491E02
:101C10002089401C20816160206A01F077F800284B
:101C200003D08A2136A0FFF707FB00202082C3E7FC
:101C3000002800D160600020A0726168206A01F075
:101C400065F8002803D09E212DA0FFF7F5FA0520A6
:101C500034E0E08A0F2816D1218A652930DB20780C
:101C600000280ED1A07C00280BD16560A072012154
:101C7000206A01F04BF8002803D0AD2120A0FFF727
:101C8000DBFA257070BD00281AD1228AFF21F631B7
:101C90008A4215DB207800280FD1A07C00280CD1C7
:101CA0006060A0720021206A01F030F8002804D0A2
:101CB000BA2100BF12A0FFF7BFFA0220207070BD4A
:101CC000A17A00290FD1616800290DD100280FD019
:101CD000E27A012A07D1891E042904D2002802D100
:101CE00000212170E17270BD0129F1D10F28EFD1DF
:101CF000267070BDC07F0008EC2C0000FF1F0000A4
:101D0000433A5C48575C666C6F77345C436F72652E
:101D10005C5372635C6C696D69742E630000000033
:101D200000B58BB00300080011002C229A5C0992C8
:101D3000DA8B08929A8B07929A6906925A690592F1
:101D40001A690492DA6803929A68029204229A5EEF
:101D5000019202229A5E009200229B5E674A02F084
:101D600089F80BB000BD018000212023C15481619E
:101D700041618183C1838280704700232C22835478
:101D800020228154704701222C21425470470100C7
:101D90002020085C002805D1888B002801D0002075
:101DA0007047FF20704710B502F015F9544C02F04F
:101DB00032F96080608610BDF0B583B00400A06A7F
:101DC000FFF7B2FD002800D195E0606AFFF7C4FE7E
:101DD000002800D08FE02C20205C002800D18AE071
:101DE000002500200221615E0422A25E8A4200DA00
:101DF000881A0021615E081A0190A0680199484381
:101E0000642102F00EFE070002953E4E606AFFF765
:101E1000A0FEB04208DDE0680199A269891A484332
:101E2000642102F0FEFD029060690100019AA26146
:101E3000019A002A0AD00090206901994843642140
:101E400002F0EFFD01000098411805E0002801DDD7
:101E5000411E01E000D5411C052900DD052161611D
:101E60000420C043814200DA606160693818029939
:101E70004018B04201DD300003E02349884200DA17
:101E80000800060007D1A08B401C81B20A2900DBA4
:101E9000E583A0832FE0A583E08B401CE08380B224
:101EA000642804DD2C202554012120202154002EFB
:101EB0000ADD164D606AFFF74CFE8019A84211DD5D
:101EC000606AFFF746FE2E1A002E08D5606AFFF7FB
:101ED00040FE801909D5606AFFF73BFE4642002E9E
:101EE00009D002DDB2B2012102E0704282B20021CB
:101EF000A06AFFF7E2FB03B0F0BD0000F481000828
:101F0000C4020020DC05000024FAFFFFEC2C0000D6
:101F100000B587B00300080011005A6906921A8ABA
:101F20000592DA680492DA88039204229A5E029299
:101F300002229A5E019200229A5E009208229B5E23
:101F4000024A01F097FF07B000BD00008C80000836
:101F500030B581B0040000F0DAFA002817D000F0A4
:101F6000DCFA002802D0208A401C20826088A080F1
:101F700000F0C9FA0821615E002901D1010002E0E8
:101F8000421A921089182181608000F0ADFA022077
:101F9000205E0421615E401A00D54042022802DA28
:101FA000E088401C00E00020E0800020215E002945
:101FB00031D0E08814282EDDE5682089401A00B26F
:101FC000684302F02EFD81101F23DB4308B29842C4
:101FD00001DA190002E0202800DD2021280069181C
:101FE000F025AD000AB2AA4203DBB425ED00AA42F7
:101FF00000DD290009B2E16000B2814209D06069C8
:1020000000F084FE002804D0932100BF13A0FFF746
:1020100013F90020208001B030BD10B582B004005B
:102020009620C00000906946606900F0E6FD0098C7
:10203000F0239B0001B2994203DBB423DB009942F9
:1020400000DD180000B2E06002B010BD0180002188
:10205000C1807047C06800B270470000433A5C48D6
:10206000575C666C6F77345C436F72655C53726368
:102070005C73746174732E6300000000F0B58DB062
:102080009F4F7B7A0BAA521C13703B7A0BAA1370DA
:102090003B8A6A46D3857A78FB89BC7AFD780BAE99
:1020A000761C36780A960BAE36780996FE79089635
:1020B000BE7907967E7906963E7905966E46F68D30
:1020C000049603920293019400953B788D4A01F0A7
:1020D000D1FE0DB0F0BD30B581B0894C002020722A
:1020E0006072E07101210120A072E1700A20A081DC
:1020F000854D962080016860280002F0EDFC0028E4
:1021000003D05E218148FFF797F8F020207101226B
:10211000211D280002F0A2FD002803D06D217B487C
:10212000FFF78AF801B030BD70B5754CA07100257D
:10213000E57165720220A0720320E0700A20A08180
:10214000714EE12040027060300002F0C5FC0028B2
:1021500003D05E216D48FFF76FF8A2790120E17985
:102160008840024200D0FF2525710122211D300048
:1021700002F074FD002803D087216448FFF75CF863
:1021800070BD30B581B05E4C0020E071207260728D
:102190000320A0720520E0700A20A0815A4DE120A2
:1021A00040026860280002F097FC002803D05E21FE
:1021B0005648FFF741F8FF2020710122211D280019
:1021C00002F04CFD002803D09C215048FFF734F862
:1021D00001B030BD00B581B04948C178012904D0B3
:1021E00003290DD0052916D022E00221C170012259
:1021F000411D454802F06AFD002819D0B52114E0C0
:102200000421C1700122411D3F4802F05FFD0028FA
:102210000ED0BB2109E00621C1700122411D3A48C0
:1022200002F054FD002803D0C1213848FFF704F81C
:1022300001B000BD10B5324CE078022804D004286B
:1022400018D0062838D010BD01206179F02901D0BE
:10225000012100E00021217260722B48E121490236
:10226000416002F039FC002846D05E212748FEF785
:10227000E3FF41E0E0796179FF2904D1227A01216D
:10228000814011432172401CE071C1B2072931DC49
:10229000A279012181400A4201D0FF2000E0002004
:1022A00020710320E0700122211D174802F0D6FCA6
:1022B000002824D0DF2119E0E0796179FF2904D1D9
:1022C000227A0121814011432172401CE071C0B289
:1022D00007280FDCFF2020710520E0700122211D5E
:1022E000094802F0BBFC002809D0F3219DA0FEF7AD
:1022F000A3FF10BD012060720020E070A07210BD2D
:10230000180C002044810008EC0800206425000817
:1023100010B5924C6078002800D1E4E0A089002834
:1023200006D0A089401EA081A089002800D1D6E057
:1023300020780E2800D9D2E001A1095C49008F4421
:10234000D2071927354350606D798494A1ADBC0044
:10235000607A002801D00020A081607A002800D196
:10236000C1E0207A002800D1B9E0CC20FFF7DCFEE4
:102370000220A0E0607A002801D00020A081607ACD
:10238000002800D1AFE04E20FFF7CEFE032092E000
:10239000607A002801D00020A081607A002800D156
:1023A000A1E07F20FFF7C0FE042084E0607A0028CF
:1023B00001D00020A081607A002800D193E03F2066
:1023C000FFF7B2FE052076E0607A002801D00020F9
:1023D000A081607A002800D185E0FFF77CFE06200E
:1023E00069E0607A002801D00020A081607A00288E
:1023F00079D0207A002872D0CC20FFF795FE0720F4
:1024000059E0607A002801D00020A081607A00287D
:1024100069D04420FFF788FE08204CE0607A00284D
:1024200001D00020A081607A00285CD0BC202082EE
:10243000092040E0208A002803D0208A401E208204
:1024400010BDFFF748FE0A2035E0607A002801D071
:102450000020A081607A002845D0207A00283ED054
:10246000CC20FFF761FE0B2025E0607A002801D028
:102470000020A081607A002835D0BE20FFF754FEEE
:102480000C2018E0607A002801D00020A081607A3A
:10249000002828D0FFF775FE0D200CE0607A002898
:1024A00001D00020A081607A00281CD0207AE08131
:1024B000FFF767FE0E20207010BD607A002801D063
:1024C0000020A081607A00280DD0217AE0890902DD
:1024D0000143E18100210020A070617010BD012046
:1024E000A0700020607010BD00B581B001201B49B4
:1024F00001220A70002300228A70CB814870FFF706
:10250000EAFD01B000BD1548C08900B2704713480C
:102510004078401E8041C00F704710488078704757
:1025200000B581B00E48E1214902416002F0D4FAC1
:10253000002804D05E2100BF0AA0FEF77DFE002126
:1025400006480022C27082724272027202704270A9
:1025500001828181817001B000BD0000180C002053
:10256000EC080020433A5C48575C666C6F77345C3B
:10257000436F72655C5372635C64733138623230EE
:102580002E630000F0B402000E0000250020002E93
:102590001FD01100B3079B0F904C07D0177847400E
:1025A000E05D6D1C5B1E521C002BF7D1B20810D0F1
:1025B00049190B784340E35C48785840235C88789D
:1025C0005840235CC8785840205C521E091D002AE0
:1025D000EFD1F0BC704710B5814C200002F058FCE0
:1025E000802252007F49200002F09DFB22681020CB
:1025F00010621168084310607B48006841687B489E
:10260000418010BD30B58FB0784A5388784C257A18
:102610000D95E5790C95A5790B9565790A95257940
:102620000995E5780895A578079565780695247845
:102630000594D4880494948803941489029454785B
:10264000019400931378B24A01F014FC0FB030BD2E
:1026500070B50E00320067498A421CDA664D55217A
:102660002970310A6970AE700324310004D0010072
:10267000E81C01F069FCF41CA1B22800FFF782FFFE
:10268000A1B268546423621C92B22900544802F03B
:102690005FFA002801D00020C04370BD00215348DC
:1026A00001707047704730B581B04D4802F06CFB47
:1026B0004D4803F0C7FA80210905AE480160BFF319
:1026C0004F8FBFF36F8F4C0BAB4801682143016004
:1026D0000268AA4911400160C1682143C160C16814
:1026E000214000910099E10082680A43826080687D
:1026F0000140009100989020C0050268A049114057
:1027000062010A4302609F4903680B40E2011A43D9
:10271000026003689C4A1A40E30213430360426A62
:10272000F0239A43102313434362436A974A1A40A3
:10273000A30913434362436A954A1A40A300134313
:102740004362C2681140A2010A43C2608268C0218C
:102750000903114381608268C021890311438160AC
:102760008268C0218904114381608A4D2968012053
:1027700081432960EFF31080012181F310882A68DA
:102780000C211143296080F3108829688248084091
:102790002860696881480840686081480168E120D4
:1027A00000020818E121490202F03EF980B2E86017
:1027B00028687C490140296029687B4808402860D6
:1027C000A9687A480840A860A8680443AC602868F3
:1027D00001210143296001B030BD0000E87C000800
:1027E0006408002064060020B40B00202A0C00209E
:1027F000640700200102000060040020F0B5FFB073
:1028000084B0002500266A4909680824694B5C6089
:1028100002245C600423674C6360674C6B465880FD
:1028200000206A46118001E00D020220604909681B
:102830006A461288891A6A46528889B2914264D2DD
:102840005C490A689206F1D50989C9B2020005D02F
:10285000022807D0E8D303280DD0E7E75529E5D1B2
:102860000120E3E728000D0005430020FF2DDDDCFB
:1028700000260320DAE743AAB3B2D154761CB1B2E2
:102880006A1C9142D2DB552168460172280A02A9CE
:10289000487002A885702A0043A9C01C01F054FBAF
:1028A000E81C01900021002002AB019A9207920FD0
:1028B00007D01F784F40E15D401C521E5B1C002A70
:1028C000F7D1019A920811D002AB181803784B4047
:1028D000E35C41785940635C81785940635CC1781E
:1028E0005940615C521E001D002AEFD143AA505D81
:1028F000884204D1002D02D01078372801D0002062
:1029000094E701207FB004B0F0BD0020FAE700009A
:10291000E87D000870B50E0032008B498A4202DB68
:102920000020C04370BD894C55212170310A61706F
:10293000A6700325310005D00100E01C01F004FB66
:10294000F61CB5B229002000FFF71CFE60556D1C77
:10295000ADB21848002D07DD01680906FCD52178C5
:102960008181641C6D1EF7D101684906FCD50020E9
:1029700070BD000080E100E00C100240FFBFFFFFCF
:10298000FFFFF3FFFFFFCFFFFFFFFFFCFFF0FFFFA5
:10299000FFFFF0FF00380140FFE9FFFFFFCFFFFF1F
:1029A00024040020FFFF1FFCFFFFE0FFFF7FFFFF6D
:1029B000240400401C380140E87C0008F0B5C3B096
:1029C00063480068416889B262484088884261482B
:1029D000428802DA802040001218501A80B2002883
:1029E0005C4A51803ED0802149005288891A091AD8
:1029F000002837DD0A00CB111B0E591809120902F5
:102A0000511A89B201910290534F544A0199C81149
:102A1000000E4318FF208343C81A125C4D484078CB
:102A2000002805D002280DD007D3032821D012E0BA
:102A3000552A10D1012147480CE0464811028180F7
:102A4000022107E0434881880A4300213E4B9A4215
:102A50000ADB828041700198401C01900298401E60
:102A60000290D2D143B0F0BDC180511C018103213D
:102A7000EFE73848C0883A4B1A54401C3549C880A3
:102A8000098980B28842E6D35520694608733148E7
:102A9000818868460180090A03A841706846018858
:102AA00003A881700325032368460088002808D006
:102AB0006846048822002A4903A8C01C01F044FA91
:102AC000E31C002400200021002B1ED003AA1D407F
:102AD00007D016784640B85D491C6D1E521C002D6B
:102AE000F7D19A0811D003AB59180D7845407D5D98
:102AF00048786840385C8D7845407D5DC87868408E
:102B0000385C521E091D002AEFD1154A6946098812
:102B1000515C814208D168460088002804D068468C
:102B200001881000FDF742FB0A484470C48004810C
:102B3000848090E700B581B010200A4909680862D6
:102B4000FFF73CFF01B000BD01020000600400205F
:102B5000B40B00202A0C0020E87C0008640600204A
:102B6000640700206408002000B581B0064A1068A0
:102B7000102101431160032003F002F903F024F94E
:102B8000002001B000BD00000020024030B585B03B
:102B900005000C00A64804900390029004A9A548E3
:102BA00000F02BF803A9B44800F027F802A9B348B5
:102BB00000F023F80298019003980090049BB04A1B
:102BC0002100280001F056F905B030BDF0B581B004
:102BD00005000F001600002403F08BF93A003300C3
:102BE0002900032003F008F9050003F091F9002DF6
:102BF00000D00124200001B0F0BD70B40200002319
:102C00000020A64C25682D6866683668002D04D122
:102C1000002E05D103E0042302E0002EFBD00120AA
:102C2000050013D1E5582B000833FE24A4002D190C
:102C30009D420AD32C68944203D0083D9D42F9D2AC
:102C400003E02D1D2A680A6000E0012070BC704777
:102C5000F0B587B00E001400010005D100216846D0
:102C600041700121017006E0012804D168464170DD
:102C70000020694608708A496846007800F0C1F86B
:102C8000010041D12200A84C6846007880002558F8
:102C9000083531002800FFF799FF010034D10835CD
:102CA000083402962F000B2521680298814207D034
:102CB0000020019001A92068FFF79FFF002803D0A2
:102CC000241D6D1EF0D114E00199206804AA03C2EE
:102CD00003F00FF904A80CC83900032003F08CF8A6
:102CE000060003F015F9002E01D10837E8E70120AE
:102CF0000AE06846407800F09FF8010004D1002106
:102D00006846007800F07DF807B0F0BD70B50300AC
:102D1000854A906898420ED0012014000C34256832
:102D20009D4208D065689D4205D0801C08340B2860
:102D3000F5D3012070BD0020002415682D68566869
:102D40003668002D04D1002E05D103E0012402E0F5
:102D5000002EFBD00120050019D1A0001058FE2242
:102D60009200851808300A0085420CD30021C9431F
:102D700006688E4203D008308542F9D203E019007C
:102D8000FFF724FF70BD19002000FFF761FF70BD41
:102D9000F3B585B064486946097E8900475808370D
:102DA000040008340B250020009069462068FFF7D6
:102DB00024FF002803D0241D6D1EF4D114E00099D7
:102DC000206802AA03C203F094F802A80CC83900D4
:102DD000032003F011F8060003F09AF8002E01D149
:102DE0000837E8E701200AE000216846007E00F08D
:102DF00008F8010003D16846007D00F01DF807B017
:102E0000F0BD70B505000E00002403F072F832002A
:102E100000234548A9004158022002F0EDFF0500BB
:102E200003F076F8002D00D00124200070BD0000D2
:102E3000EFBEADDE1212121230B585B004000020D4
:102E400001903949A2008958029101210391009013
:102E500003F04FF8694601A803F0BAF8050003F043
:102E600057F8002D01D0012004E00021C9432000C3
:102E7000FFF7C7FF05B030BD34343434CDCDCDCDF0
:102E80000884000800B581B00020FFF7D5FF0100DD
:102E900002D10120FFF7D0FF01B000BD00000020EB
:102EA00055555555F0B581B000201F490A68156881
:102EB00049680C681D4E0027FF43BD4201D1BC424A
:102EC00007D0002D01D1002C03D0B54209D1B44266
:102ED00007D1FFF7D7FF010023D100210020FFF722
:102EE00090FFB54205D1BC4203D100210020FFF77D
:102EF00088FFBD4205D1B44203D100210120FFF774
:102F000080FFB54205D1002C03D100210120FFF73D
:102F10003FFF002D05D1B44203D101210020FFF76E
:102F200037FF01B0F0BD0000000000205555555599
:102F3000F0B587B014210022684601F087F880219F
:102F40000903454802680A4302600268114005917E
:102F500005998021C90302680A4302600268114092
:102F6000059105998021890202680A43026002687E
:102F70001140059105998021C90202680A43026047
:102F800000680140059105988024A40100222100D9
:102F9000324801F0C6FC002228219020C00501F033
:102FA000C0FC2F4E00222F49300001F0BAFC012254
:102FB0002221300001F0B5FC2B4F002240213800C7
:102FC00001F0AFFC009401250195002402940394C4
:102FD0006946224801F0D0FBA803009001940294B6
:102FE00069461E4801F0C8FB2048009001940294F5
:102FF00069469020C00501F0BFFB28200090019594
:103000000294039469469020C00501F0B5FB18486E
:1030100000900195029403946946300001F0ACFBE6
:1030200014480090019402946946300001F0A4FB1A
:10303000402000900195029403946946380001F005
:103040009BFB80200090019402946946380001F0B7
:1030500093FB07B0F0BD00BF141002400008004809
:10306000000400485555000000140048D209000033
:103070007755000088AA000000B581B00120094AF8
:103080001168014311601168084000900098002207
:1030900000210A2003F01AF80A2003F01DF801B0FD
:1030A00000BD00BF1410024000B581B05A485B4912
:1030B0000160E1214902416000228260C260026138
:1030C0000C2141618261C2610262426200230021DF
:1030D00003F02CF8002804D0382100BF55A0FEF7DB
:1030E000ABF801B000BD000000B581B04C484D49BF
:1030F000016096218901416000228260C260026104
:103100000C2141618261C2610262426201F0E4FC11
:10311000002804D0572100BF46A0FEF78DF801B06B
:1031200000BD000070B586B006001421002268467C
:1031300000F08CFF30683949884241D13A488021FB
:10314000C90142680A4342604268114005910599ED
:103150008021890202680A430260006801400591EB
:103160000598B020400100900220019000250295B2
:10317000032003900120049069469020C00501F0CF
:10318000FBFA2A4C2A4820606560A5608020E06038
:10319000256165612020A061E561200002F0D6FC78
:1031A000002804D0842100BF22A0FEF745F87467F0
:1031B0006662002200211B2002F088FF1B2027E00E
:1031C0001849884226D18020800217498A68024324
:1031D0008A608A6802400592059A0A6802430A607A
:1031E000096808400590059804200090122001907D
:1031F0000120029003210391049069469020C005AC
:1032000001F0BAFA002200211C2002F05FFF1C200E
:1032100002F062FF06B070BD640800200038014073
:10322000EC0800200044004014100240B40B0020C1
:1032300030000240433A5C48575C666C6F77345C00
:10324000436F72655C5372635C75736172742E6355
:103250000000000030B587B01021002202A800F065
:10326000F5FE00216846016041609F4D9F4828603F
:103270009F4868600024AC603120E8602C616C617C
:10328000AC61280000F040FA002803D03B21A6489A
:10329000FDF7D2FF80204001029002A9280000F033
:1032A0005AFB002803D040219F48FDF7C5FF20208E
:1032B000009001946946280002F080FF002803D0A6
:1032C00046219948FDF7B8FF07B030BD30B587B04B
:1032D0001021002202A800F0B9FE0021684601601A
:1032E0004160924D8020C005286000246C60AC6075
:1032F0000020C043E8602C61AC61280000F004FAB3
:10330000002803D063218848FDF796FF80208001C4
:10331000029003940494059402A9280000F01BFB7A
:10332000002803D06B218048FDF786FF00940194AC
:103330006946280002F042FF002803D071217A4834
:10334000FDF77AFF07B030BD30B587B010210022FD
:1033500002A800F07BFE0021684601604160744DC8
:1033600074482860744868600024AC607348E86062
:103370002C61AC61280000F0C7F9002803D08B2134
:103380006948FDF759FF80204001029002A92800FA
:1033900000F0E1FA002803D08F216348FDF74CFFCD
:1033A000009401946946280002F008FF002803D029
:1033B00095215D48FDF740FF07B030BD30B583B0C3
:1033C00000216846016041605D4D5E4828602F2005
:1033D00068600024AC605948E860AC61280000F0E7
:1033E00093F9002803D0AC214F48FDF725FF20209A
:1033F000009001946946280002F0E0FE002803D006
:10340000B2214948FDF718FF03B030BD00B581B0C7
:10341000A848A9490160FF21E03141600022826093
:103420004649C1600261826100F06EF9002803D054
:10343000CC213D48FDF700FF01B000BD30B587B09D
:103440001021002202A800F001FE00216846016060
:1034500041609A4D9A4828609A4868600024AC60A0
:103460000120E8602C616C61AC61280000F04CF92F
:10347000002803D0EA212C48FDF7DEFE8020400121
:10348000029002A9280000F066FA002803D0EF217C
:103490002548FDF7D1FE20200090019469462800C0
:1034A00002F08CFE002803D0F5211F48FDF7C4FE72
:1034B00007B030BD00B581B08348844901602F2139
:1034C0004160002282608249C16002614261826182
:1034D00000F01AF9002804D08821490083A0FDF7E4
:1034E000ABFE01B000BD000074090020002C0140BB
:1034F000BF12000000B581B07648774901602F21E6
:103500004160002282607249C16002614261826151
:1035100000F0FAF8002804D0FF212C3173A0FDF749
:103520008BFE01B000BD0000EC360008BC09002095
:10353000040A0020000400407FBB0000FFFF0000E1
:103540004C0A00200010004010B586B00400142181
:10355000002201A800F07AFD2068604988420FD15E
:103560005F4AC80C5168014351605168084000909F
:103570000098002200210D2002F0A8FD0D2095E00A
:103580008021C90588421DD15548012182680A431E
:10359000826082680A400092009A4A0403681343DA
:1035A000036000680240009200980191022002909E
:1035B000002103910491059001A99020C00501F01C
:1035C000DBF875E0474988420FD10220444A9168F0
:1035D000014391609168084000900098002200210A
:1035E000102002F073FD102060E03F4988420FD1A7
:1035F00010203B4A91680143916091680840009017
:10360000009800220021112002F060FD11204DE001
:10361000294988420FD1880D314A91680143916050
:10362000916808400090009800220021132002F0C9
:103630004DFD13203AE02249884210D180204002FB
:10364000274A516801435160516808400090009832
:1036500000220021142002F039FD142026E01B492D
:10366000884210D1802080021D4A51680143516078
:10367000516808400090009800220021152002F0B7
:1036800025FD152012E01449884211D18020C00286
:10369000134A5168014351605168084000900098F6
:1036A00000220021162002F011FD162002F014FD68
:1036B00006B010BD940A002000200040DC0A002063
:1036C00000400140BF5D0000240B00200044014089
:1036D00050C300006C0B002000480140002C01404A
:1036E000141002400004004000100040433A5C48BF
:1036F000575C666C6F77345C436F72655C537263C2
:103700005C74696D2E63000010B5040001D10120C6
:1037100010BD3D20205C002805D100213C20215413
:103720002000FFF711FF02213D202154211D2068B8
:1037300000F0C6F90120462160543E2160543F212B
:10374000605440216054412160544221605443211F
:10375000605444216054452160543D216054002050
:1037600010BD3D21415C012901D00120704702229A
:103770003D2142540168204A914209D08022D2055D
:10378000914205D01D4A914202D01D4A914204D176
:1037900089684907490F062905D001680A6801218F
:1037A000114300680160002070473D21415C012900
:1037B00001D00120704702223D21425403680121BB
:1037C000DA680A43DA6002680B4B9A4208D08B072A
:1037D0009A4205D0094B9A4202D0094B9A4205D130
:1037E00092685207520F062A04D0026812681143E9
:1037F0000068016000207047002C01400004004078
:1038000000400140F0B581B006003068C168009109
:10381000046902252C4215D0294013D00221C94346
:103820000161012131778069800703D0300002F007
:10383000F9FC05E0300002F0F6FC300002F0F4FC88
:103840000020307704273C4218D00098384015D02B
:1038500031680420C043086135778969C020800041
:10386000084003D0300002F0DDFC05E0300002F03B
:10387000DAFC300002F0D8FC0020307708252C421A
:1038800016D00098284013D031680820C043086142
:103890003777C869800703D0300002F0C3FC05E029
:1038A000300002F0C0FC300002F0BEFC0020307797
:1038B00010210C4218D00098014015D0316810201A
:1038C000C04308613577C869C0218900014003D031
:1038D000300002F0A7FC05E0300002F0A4FC30004C
:1038E00002F0A2FC00203077E107C90F009AD00750
:1038F000C00F014206D00121C94330680161300088
:10390000FCF7DCFB80210C4209D00098014006D076
:103910008020C04331680861300002F086FC4021FD
:103920000C4209D00098014006D04021C9433068BC
:103930000161300002F07AFC2020044009D0009997
:10394000084006D02020C04331680861300002F0F2
:103950006EFC01B0F0BDF0B481B000226B461A706D
:103960003C22825C012A01D10220A0E001223C23FA
:10397000C25402243D23C4540568AB684E4C1C401D
:10398000AC600B681C0000D17FE0102B7DD0202B99
:103990007BD0302B79D0402B60D0502B2ED0602B99
:1039A00043D0702B06D01503AB4279D05503AB4200
:1039B00012D073E0CB684C6889680768BD683D4EDB
:1039C0002E4031430C4319022143B96001688C68D1
:1039D000772323438B6063E0CB684C688968076872
:1039E000BD68344E2E4031430C4319022143B96067
:1039F0000468A16893030B43A36051E0CB684F6850
:103A000001680C6A254695430D628E69F025AE4328
:103A10001B0133438B610A239C4327430F620168D8
:103A20008B687024A343572435E0CB684F68016846
:103A30000C6A25461026B5430D628D691F4E2E4037
:103A40001B0333438B61A0239C433B0123430B6245
:103A500001688B687024A34367241CE0CB684F681F
:103A600001680C6A254695430D628E69F025AE43C8
:103A70001B0133438B610A239C4327430F62016878
:103A80008B687024A343472405E001688D68702487
:103A9000A5432B4307241C438C6001E069460A7050
:103AA0003D21425400213C2281546846007801B0F7
:103AB000F0BC7047FF00FFFF8800FFFFFF0FFFFF14
:103AC00010B40368244A904206D08024E405A04242
:103AD00002D0224CA0420AD17024A3431C004B68A0
:103AE0002343904212D08024E405A0420ED01B4C08
:103AF000A0420BD01A4CA04208D01A4CA04205D0CC
:103B0000194CA04202D01A4CA04203D1174C1C40C1
:103B1000CB6823438024A3434C691C4304608B6817
:103B2000C3620B688362904208D00E4A904205D06F
:103B30000D4A904202D00E4A904201D109690163B8
:103B40000122426101690A4003D0026901218A43CE
:103B5000026110BC70470000002C014000040040CE
:103B6000002000400040014000440140FFFCFFFFF6
:103B70000048014000B587B00300080011005A8BCF
:103B800006921A8B05925A8A04921A8A03925A89CB
:103B900002921A8901925A8800921B88ADA200F005
:103BA00069F907B000BDF0B581B00E0000D192E018
:103BB000040000271D002088884239D13100881A6E
:103BC000684300F02EFFC110142901DD142104E028
:103BD0001320C043814200DA01006818009001D52B
:103BE000002003E06E480099814200DD00903D0016
:103BF0006C4F17D0E80022181000083803C803C221
:103C0000083A50880104108801435068FFF77EF895
:103C1000002803D04D213800FDF70EFB6D1EEDB2DC
:103C2000002DE7D12680009860806088010447E07D
:103C3000012720898842C1D00227218AB142BDD004
:103C40000327218BB142B9D0564F2000103003C852
:103C50002200183203C2608B0104208B0143E0690B
:103C6000FFF754F8002803D04D213800FDF7E4FA9F
:103C70002000083003C82200103203C2608A010409
:103C8000208A01436069FFF741F8002803D04D21E5
:103C90003800FDF7D1FA03CC083C2200083203C2F9
:103CA0006089010420890143E068FFF72FF80028AC
:103CB00003D04D213800FDF7BFFA26806580290426
:103CC000208801436068FFF721F8002803D04D21C8
:103CD0003800FDF7B1FA01B0F0BD30B581B0050094
:103CE0000024009469466868FEF787FF00982880E2
:103CF0000098000C688000946946E868FEF77DFF34
:103D0000009828810098000C6881009469466869D1
:103D1000FEF773FF009828820098000C68820094D8
:103D20006946E869FEF769FF009828830098000C4F
:103D3000688301B030BD70B505001A4E00242C8098
:103D40006C8000216868FEF7E1FF002803D04D2158
:103D50003000FDF771FA2C816C810021E868FEF7D4
:103D6000D5FF002803D04D213000FDF765FA2C82E5
:103D70006C8200216869FEF7C9FF002803D04D213D
:103D80003000FDF759FA2C836C830021E869FEF7B7
:103D9000BDFF002803D04D213000FDF74DFA70BD66
:103DA000B80B000098840008F0B586B00026009695
:103DB000049603960B002FD003000A000590009F85
:103DC000029600210196049C039D1888002818D0B3
:103DD000904209D00DDA002C01D0874211DA070099
:103DE0005888029001240CE00598801CF100405A8C
:103DF0002DE0002D01D0884203DA0100588801909F
:103E00000125761C0833042EDFDB00970298019B06
:103E10002E002643360601D1002018E0002C05D1E3
:103E20001C00501A584300F0FCFD0EE0002D04D198
:103E30005043394600F0F5FD08E00400D21B181A83
:103E400042431000C91B00F0EFFD201880B206B0FD
:103E5000F0BD000046462025642D3E25642C2564D7
:103E60002D3E25642C25642D3E25642C25642D3E95
:103E70002564000008B410B585B007AB0493002496
:103E80000394002902D10194029402E00190491E9A
:103E90000291009404AB01A9084878441E3002F056
:103EA000CBF90199002900D00C70002800D40398A8
:103EB00005B0019910BC02B0084700BF754600006C
:103EC000431C810705D00178401C094217D08107A7
:103ED000F9D130B40B4CE50104C8111B91432942C0
:103EE000FAD030BCDB1CFF210A4208D0120A5B1E4C
:103EF0000A4204D0120A5B1E0A4200D05B1EC01A9E
:103F0000704700000101010170B4103A03D378C971
:103F1000103A78C0FBD2530701D318C918C001D595
:103F200008C908C0D20704D30B880380891C801CF1
:103F3000002A01D50B78037070BC7047521E22D343
:103F40000B78491C0370401C8B07F7D18307DBD02B
:103F5000DB4219D0401E121F08D308C943701B0A48
:103F600043801B0C0371001D121FF6D2D20707D32A
:103F70000B88437001D08A78C2701B0A8370704727
:103F800001D00B7843707047121F06D308C9038015
:103F90001B0C4380001D121FF8D2D20705D30B88DB
:103FA000038005D08B788370704701D00B78037045
:103FB00070472E0000B585B0184A93880393538844
:103FC0000293D3680193936800931378144AFFF720
:103FD00051FF05B000BD30B4104802781100114BFC
:103FE0001D68040008348B00E550012A09D183685C
:103FF000C268D41A8388A2B29A4200D21A00828080
:104000004480491C0A0000235B18FE211940511A04
:10401000017030BC7047014840887047340C002064
:10402000788300082400004000B50B00E12B01DA82
:10403000002000BD914201D3642000BDE03941431E
:104040000800D11A00F0F0FC80B200BD1206130A7D
:104050001A43130C1A4300BF094205D0830707D047
:104060000270401C491EF9D1704700000022FFE792
:104070001300103906D330B41400150010393CC0B9
:10408000FCD230BC490700D30CC000D504C0890065
:1040900002D30280801C002900D502707047FEE721
:1040A000F1B582B0002800D1F9E1B24E0078C00726
:1040B00016D50C2071680140042909D071680840A8
:1040C000082849D18021490270680840884243D1BC
:1040D0003068800304D502984068002800D1DEE1F2
:1040E0000298007880071AD50C207168014006D02C
:1040F0007168084008286DD17068C0036AD43068C0
:10410000800704D50298C068012800D0C7E1306854
:10411000F821884302990969C90001433160029876
:104120000078000700D495E00298C0690028716A01
:1041300000D17FE001200843706203F03DF80400E5
:104140000225706A284000D084E003F035F8001B97
:104150000228F6D90320A5E102984068012804D17D
:10416000316880204002084315E0002801D1316801
:104170000BE00528316808D18020C0020843306078
:10418000316880204002084305E07B4808403060E9
:1041900031687A48084030608025AD020298406856
:1041A00000280BD003F008F804003068284097D1AD
:1041B00003F002F8001B6528F7D3CBE702F0FCFF01
:1041C0000400306828408BD002F0F6FF001B652801
:1041D000F7D3BFE70298C0680028316819D00120E2
:1041E0000843306002F0E8FF0225029C07003068B7
:1041F000284005D102F0E0FFC01B0228F7D9A9E74B
:104200003068F82188432169C90001433160029474
:1042100085E701208143316002F0CEFF04000225D2
:104220003068284000D17AE702F0C6FF001B022860
:10423000F6D98FE701208143716202F0BDFF0400CF
:104240000225706A284005D002F0B6FF001B022844
:10425000F7D97FE704240298006820406DD0002041
:104260000090A006F169014008D1F1690143F161B4
:10427000F169084000900098012000908A48006889
:10428000C00510D4884F3868A1010143396002F09D
:1042900093FF05003868C00505D402F08DFF401B70
:1042A0006528F7D356E702988068012803D1306A61
:1042B0000121014318E0002807D1306A0121884319
:1042C0003062306AA04330620FE0052806D1306AC0
:1042D00020433062306A0121014305E0316A012048
:1042E00081433162316AA1433162029880680028BB
:1042F0000FD002F061FFAC49019102270500306A3E
:10430000384013D102F058FF411B01988142F6D387
:1043100020E702F051FFA44F0500306A800705D561
:1043200002F04AFF401BB842F7D313E70098002879
:1043300003D0F1699D480840F06102980078C006FA
:1043400026D502984169012941D1706B04437463F9
:10435000716B01200843706302F02EFF0225029C5E
:104360000700706B28400BD102F026FFC01B02280B
:10437000F7D9EFE600100240FFFFFEFFFFFFFBFF53
:10438000706BF8218843A169C900014371630294ED
:104390000298016A002900D183E070680C22024073
:1043A000082A64D08025AD0493480229316850D191
:1043B0000840306002F000FF029C0700306828408F
:1043C00029D002F0F9FEC01B0228F7D9C2E604206A
:1043D000C04381420BD1716B08407063706BF82150
:1043E000884302998969C90001437163D0E7706B02
:1043F00004437463716B01208143716302F0DCFE3E
:1044000004000225706B2840C2D002F0D5FE001BCC
:104410000228F7D99EE6F06A0F218843E16A01433A
:10442000F16271687A480840A16A0143606A0843F2
:104430007060316868080843306002F0BDFE040017
:10444000306828402DD102F0B7FE001B0228F7D9B2
:1044500080E60840306002F0AFFE0400306828407B
:104460001FD002F0A9FE001B0228F7D972E601292D
:1044700015D07068F16A802252020240029B5B6A8A
:104480009A420CD10907090F029AD26A914206D1C9
:10449000F021890301400298806A814201D0012005
:1044A00000E0002003B0F0BD00700040F0B581B026
:1044B00004005DD0009101275648016839400098FA
:1044C00081420AD253480168B943009A0A43026004
:1044D00001683940009881424AD120684E4D02213E
:1044E00008420CD0400704D56A68E020C0001043A1
:1044F00068606868F0229043A26802436A6020689E
:10450000384025D06068012802D12968890303E07A
:10451000022803D12968890103D429E02A681140BF
:1045200026D06A6803218A431043686002F044FE83
:10453000060069680C20084061688900884207D03D
:1045400002F03AFE811B18488142F2D3032028E092
:104550003048009A016839408A420BD20168B94359
:10456000009A0A430260006807400098874201D021
:10457000012016E02078400705D5696827480840E3
:10458000E1680143696000F013F825496A68120682
:10459000120F895CC84023490860032001F0F0FB3A
:1045A000002001B0F0BD000089130000FFFFFFEF05
:1045B00010B51D4A10680C210140042902D00829B9
:1045C00002D016E0194810BD0F2100BF1BA4830CB8
:1045D0000B40E45C926AC00307D514481BA311404A
:1045E000595C00F021FA604310BD20001049484397
:1045F00010BD104810BD0000FFFFFFFE0948006815
:104600000D49094A12685205520F895CC84070472B
:10461000FFFFC2FF0020024000100240FFF8FFFF32
:104620005085000824040020041002400024F400F7
:1046300000093D0000127A0070850008020304059D
:10464000060708090A0B0C0D0E0F101001020304D7
:1046500005060708090A0B0C0D0E0F10F0B583B004
:1046600006003F4C3068C0035BD500278020400522
:104670002168014007D12168014321602168084079
:1046800000900098012737480068C00513D43548CA
:104690000168800D08433349086002F08DFD050074
:1046A00030480068C00506D402F086FD401B65282E
:1046B000F6D3032051E0C02080006168014024D07F
:1046C00072681040814220D06168274808406168C4
:1046D000802252020A43626062682449114061608C
:1046E0006060C00711D502F067FD214901910221E8
:1046F0000091050061680098084006D102F05CFD59
:10470000411B01988142F5D3D3E761681648084000
:10471000716801436160002F03D020681549014092
:1047200021603078C00705D5606903218843B168EE
:10473000014361613078800605D5606910218843A6
:10474000F168014361613068400505D56069402129
:104750008843316901436161002003B0F0BD00006E
:104760001C10024000700040FFFCFFFFFFFFFEFF37
:1047700089130000FFFFFFEFF0B484B00F23029312
:104780000B68002B00D1C2E00700080000210126C1
:104790008E400268324000D1B4E04C006B461C7081
:1047A00003241B789C40E34301934468A3079B0FB9
:1047B000012B01D0022B11D1BB68019C1C40C568A4
:1047C0006B461B789D402543BD607C680123B44344
:1047D00045682D092B408B4023437B6003234468AD
:1047E0001C40032C26D0FC68019E264084686D4640
:1047F0002D78AC403443FC6044681C40022C19D135
:10480000CC08A4003E19346A03948C001C25254072
:104810006C466570039DAC46029C6D466D78AC405D
:104820006546A543AC4605696C466478A540644678
:10483000254335623D68019C2C4046681E406D460C
:104840002D78AE4026433E6045681C042C4059D06C
:104850000124374D2D682543354E356035462D688A
:1048600025400095009D334E8D08AD0075190195CA
:10487000019D2D6803950C268D002E406D462E70EF
:10488000039DAC46029E6D462D78AE406546B5430D
:104890009026F605B7420AD0274EB74209D0274CDA
:1048A000A74208D0264CA74206D0052304E00023E7
:1048B00002E0012300E002236C462478A3402B434E
:1048C000019C23601F4B9D68D3431D404468E40254
:1048D00000D515431B4CA560E6681E404568AD0237
:1048E00000D51643E66066681E404568AD0300D5F6
:1048F0001643666025682B404568ED0301D51A43D1
:1049000013002360491C0268CA4000D03FE704B08E
:10491000F0BC704700690840401E8041C043C00F92
:104920007047002A01D081617047816270470000A2
:104930001810024008000140000400480008004828
:10494000000C00480004014030B4434351435D185B
:10495000010C0C00130C5C432D1980B2434392B23E
:1049600051430024C918644124040B04090C09199B
:104970005043C018694130BC704712422DD0994253
:1049800031D970B500251B4209D00C00002112E07E
:10499000110000F049F80A000021002370BD09420F
:1049A000F6D00024012649186441944200D3A41A89
:1049B0007641F8D33100012601E0764109D2001892
:1049C00064416D41A41A9D41F7D2A4185D41B61906
:1049D000F5D3300022002B0070BD1B42CFD108B5AB
:1049E00002F0F0FB08BD01D19042CAD202000B00D8
:1049F000002100207047F446002804D4494200F00A
:104A000013F8404260474042002905D45FD000F0CF
:104A10000BF8404249426047494200F005F84942DC
:104A2000604703460B43E6D40022030A8B420BD2B5
:104A300003098B4219D243088B422ED2411A00D26D
:104A40000146524110467047FF2209023FD012062C
:104A50008B4205D3121209028B4201D312120902B2
:104A600003098B4219D300E0090AC3098B4201D321
:104A7000CB01C01A524183098B4201D38B01C01A6A
:104A8000524143098B4201D34B01C01A52410309E1
:104A90008B4201D30B01C01A5241C3088B4201D390
:104AA000CB00C01A524183088B4201D38B00C01A3D
:104AB000524143088B4201D34B00C01A52418842F5
:104AC00000D3401A5241CFD201461046704708B574
:104AD00002F07AFB08BDFEE730B581B0040001D1D9
:104AE000012031E0250078356868002803D128705E
:104AF0002000FEF717FB242068602268106801215F
:104B000088431060606A002802D0200000F012FC88
:104B1000200000F08BFB012816D0226850680B495A
:104B20000140516022689068222188439060226889
:104B300090680821014391602268106801210143B7
:104B40001160200000F066FC01B030BDFFB7FFFF30
:104B5000F8B584B006005030C06A20287BD10D0023
:104B60000DD068468280002A09D080277F01B06876
:104B7000B84206D13069002803D1E80701D50120E9
:104B80006AE03000503000900024446321210098F6
:104B9000C16202F011FB029068468088009908808B
:104BA0006846808800994880B068B84206D130696C
:104BB000002803D100272C00019427E02F00FBE7F9
:104BC000397801857F1C1CE00020C043844208D056
:104BD00002F0F2FA401B844238D3002C36D0306801
:104BE00000683068C1690906EED504940295002F6B
:104BF000E6D101990988C905C90D01850198801C74
:104C0000019000984088401E009948800098408894
:104C1000002812D0049C029DE3E704980021C943B8
:104C200088420AD002F0C8FA0299411A04988842D0
:104C30000CD300280AD0306800683068C06940068C
:104C4000EBD520210098C162002005E020200099CA
:104C5000C862032000E0022005B0F0BD70B403007C
:104C60005033DC6A202C2ED100290BD0140009D03F
:104C7000846880256D01AC4206D10669002E03D1FF
:104C8000CE0701D501201FE0C1641A805A8000219F
:104C9000D96159632121D962AC4204D1016900294B
:104CA00001D1374900E03749D961EFF31081012282
:104CB00082F3108803681868802202431A6081F327
:104CC0001088002000E0022070BC704770B580237F
:104CD000C358202B25D100290BD0130009D084689C
:104CE00080235B019C4206D10369002B03D1CB07D3
:104CF00001D5012070BD0023036603685B681B02B9
:104D00000CD5EFF31083012484F31088066834680F
:104D10008025ED042543356083F3108800F02EFCD8
:104D200070BD022070BD70B58023C358202B25D1E3
:104D300000290BD0130009D0846880235B019C42BA
:104D400006D10369002B03D1CB0701D5012070BD2B
:104D50000023036603685B681B020CD5EFF3108326
:104D6000012484F31088066834688025ED04254307
:104D7000356083F3108800F05FFC70BD022070BDC9
:104D80004B590008ED58000830B581B00400EFF32E
:104D90001080012181F3108821680B686C4A1A4049
:104DA0000A6080F31088EFF31080012181F31088EE
:104DB00021688B68012293438B6080F31088206EFA
:104DC00001280BD1EFF31080012181F310882368B3
:104DD000196810229143196080F31088250060350E
:104DE0002068806800061AD5EFF31080012181F356
:104DF000108821688B68802293438B6080F3108831
:104E0000296900290BD000204863286900F01AFFA7
:104E1000002804D0286900F0B0FF20281ED02068A8
:104E2000806840061ED5EFF31080012181F31088C1
:104E300021688B68402293438B6080F310886969F6
:104E400000290FD000204863686900F0FBFE0028AD
:104E500008D0686900F091FF202803D11020686213
:104E6000032012E021005231002000220A800A8132
:104E70000F2221680A622368996908220A439A610D
:104E80002021E96129622860686201B030BD00001C
:104E900030B581B00400EFF31080012181F3108858
:104EA000236819682B4A0A401A6080F31088EFF3D0
:104EB0001080012181F310882368996801229143B1
:104EC000996080F31088206E01280BD1EFF31080D9
:104ED000012181F310882368196810229143196019
:104EE00080F31088250060352068806840061ED554
:104EF000EFF31080012181F3108823689968402224
:104F00009143996080F31088686900280FD00021D0
:104F10004163686900F096FE002808D0686900F0D7
:104F20002CFF202803D11020686203200EE000200F
:104F300000225A2162520F2221680A62236899696D
:104F400008220A439A6120212962286001B030BDFD
:104F50001FFEFFFFDFFEFFFFF0B581B004002668F3
:104F6000F76930460068B16825005835AA4A3A40CA
:104F70000DD12022174200D186E0024000D183E00B
:104F80002969002900D144E12000884741E101223C
:104F9000114202D1A14B034076D0FB0705D5C305D2
:104FA00003D53262EB6A1A43EA620222174207D043
:104FB000CB0705D523681A62EB6A04261E43EE620E
:104FC0000426374206D0CB0704D523681E62EB6A5D
:104FD0001A43EA620822174208D0830601D4C9079F
:104FE00004D521680A62E96A0A43EA6271020F4243
:104FF00007D0420105D522681162EA6A20211143D7
:10500000E962E96A002900D103E120210F4006D0BE
:10501000014004D02969002901D020008847E86AAE
:10502000402621688968314002D12821014025D0DD
:10503000200000F053FB2068806806401AD0EFF390
:105040001080012181F3108821688B6840229343EE
:105050008B6080F31088E86900280BD070494163A9
:10506000E86900F011FE002800D1D2E0E869416B48
:105070008847CEE02000FBF781F8CAE02000FBF76C
:105080007DF80020E862C4E0AA68012A00D092E01E
:105090001022174200D18EE0104200D18BE0326224
:1050A0002068806840064DD5E8690168496889B282
:1050B000002900D1ADE05822A25A914200DBA8E0BD
:1050C00069808069202836D0EFF31080012181F3B8
:1050D000108823681968534A0A401A6080F31088C0
:1050E000EFF31080012181F3108823689968012271
:1050F0009143996080F31088EFF31080012181F3D0
:1051000010882368996840229143996080F3108841
:105110002020A8620020A860EFF31080012181F315
:1051200010882368196810229143196080F3108851
:10513000E86900F087FD0220E8605820205A69885D
:10514000411A33E05820205A6988411A688800289B
:105150005FD008045DD0EFF31080012282F3108845
:1051600022681368304E1E40166080F31088EFF3FB
:105170001080012282F310882268966801239E43E2
:10518000966080F310882020A8620020A860286123
:10519000EFF31080012282F3108822681668102332
:1051A0009E43166080F310880220E86089B22000D8
:1051B00002F00BF82DE080225203174206D049027C
:1051C00004D53262200002F001F822E080210F4273
:1051D00007D0014005D0696900291AD0200088470E
:1051E00017E040210F4014D0014012D0EFF310809F
:1051F000012181F3108833461968402291431960D8
:1052000080F3108820206862002068612000FAF78F
:105210009BFF01B0F0BD00000F080000200100045A
:10522000D5580008FFFEFFFFDFFEFFFF70B5050049
:10523000002600242868026871491140AA680A43C0
:10524000296911436A690A43E969114301604268A7
:105250006C491140EA680A43426081686A4A0A4020
:10526000A96911432A6A0A438260684988420FD1BA
:10527000674800688007800F0DD0022806D003D34E
:1052800003280AD1022209E0042207E0082205E0EF
:10529000B249884201D1002200E0102280200002A1
:1052A000E969814221D1002A06D0022A18D0042AB5
:1052B00018D0082A04D038E0FFF7A0F9002835D02C
:1052C0006968420048081018FFF7AEFBA4490200C5
:1052D000103A8A4229D201400007400F08431CE0DF
:1052E000A048EDE7FFF764F9E8E7002A06D0022AB4
:1052F00016D0042A16D0082A04D016E0FFF77EF94B
:10530000002813D069684A088018FFF78DFB020057
:10531000103A93498A4208D280B22968C86005E0F1
:105320009048EFE7FFF744F9EAE70124AE66EE663E
:10533000200070BD2421415C090706D501684B6837
:10534000894A1A40436B13434B602421415CC907CF
:1053500006D501684B68854A1A40836A13434B603F
:105360002421415C890706D501684B68804A1A40B0
:10537000C36A13434B602421415C490706D5016889
:105380004B687C4A1A40036B13434B602421415CF9
:10539000C90606D501688B68774A1A40836B1343A8
:1053A0008B602421415C890606D501688B68134A0D
:1053B0001A40C36B13438B602421415C490611D50D
:1053C00001684B68994A1A40036C13434B60036CA5
:1053D00080225203934205D14B68954A1A40436C90
:1053E00013434B602421415C090606D501684B68D4
:1053F000904A1A40806C104348607047FFDFFFFFFF
:10540000F369FFFFFFCFFFFFFFF4FFFF003801400C
:1054100030100240F0B581B0040000267830C6603C
:1054200001F0CAFE050008272068006838403CD01B
:105430002068C069800238D401F0BEFE411BB80567
:10544000814220D2206800684007F1D52068C069F9
:10545000384005D138022168C9690140E8D008E028
:1054600020680762200000F039F920007830C7601A
:1054700008E021680862200000F030F92000783050
:105480002021C1600670EFF31080012181F31088A4
:105490002368196880229143196080F310882100E5
:1054A0007831202048600E704BE02068006840078B
:1054B00049D52068C069400245D401F07DFE411BFA
:1054C000B805814220D2206800684007F1D52068E5
:1054D000C069384005D138022168C9690140E8D067
:1054E00008E020680762200000F0F8F8200078301B
:1054F000C76008E021680862200000F0EFF8200093
:1055000078302021C1600670EFF31080012181F313
:105510001088236819688A4A0A401A6080F3108844
:10552000EFF31080012181F310882368996801222C
:105530009143996080F310882000783020218160A9
:105540000670032008E0200078302021416081604F
:10555000266666660670002001B0F0BD004400407B
:10556000F0FF000000127A00FF7FFFFFFFFFFDFF4A
:10557000FFFFFEFFFFFFFBFFFFEFFFFF70B4416582
:10558000010058310A804A8000230B618468802220
:105590005201944206D10469002C01D18F4C09E0DC
:1055A000FF2407E0002C07D10469002C01D1FF245F
:1055B00000E07F248C8000E08B80CB6222238B6212
:1055C000EFF31083012484F310880668B468012582
:1055D0002543B56083F310888368934213D1026931
:1055E000002A10D1B54A0A61EFF31081012282F33B
:1055F00010880068036820221A43026081F3108833
:10560000002070BC7047AE4A0A6101690029EBD0E6
:10561000EFF31081012282F3108800680268902362
:105620005B0013430360E9E700000000FFFFEFFFAA
:10563000FFFF9FFFFFFFF7FF30B581B005006965F1
:105640002C00583422800020E0622221A162E3690C
:10565000002B18D09B4999629B4BE169CB629B4B15
:10566000E1690B63E169486313006A6D29682431BD
:10567000E06900F09FFA002805D01020E0622020A9
:10568000A062012028E0286900280CD0EFF31080E8
:10569000012181F310882B681968802252000A4387
:1056A0001A6080F31088EFF31080012181F31088D5
:1056B0002B68996801220A439A6080F31088EFF3FF
:1056C0001080012181F310882B68996840220A43D9
:1056D0009A6080F31088002001B030BD10B4EFF361
:1056E0001081012282F3108804682268144B134051
:1056F000236081F31088EFF31081012282F3108878
:105700000468A26801239A43A26081F31088016EA5
:1057100001290BD1EFF31081012282F31088046874
:10572000226810239A43226081F31088202280216E
:10573000425000210166816610BC704700000000E5
:10574000DFFEFFFF70B50100486A020058320023F7
:105750008969202936D000215180EFF3108101247E
:1057600084F3108806683468594D2540356081F30C
:105770001088EFF31081012484F310880668B46860
:105780000125AC43B46081F31088EFF3108101244C
:1057900084F310880668B4684025AC43B46081F394
:1057A000108820219162916801290BD1EFF31081BB
:1057B000012484F31088066834681025AC433460F3
:1057C00081F31088D3609168012904D15821415A8E
:1057D00001F0FBFC70BDFAF7C4FC70BDFF010000D6
:1057E00000B581B0406A020058320121D160916851
:1057F000012905D15821415A490801F0E6FC01E090
:1058000001F0E5FC01B000BD70B5406A01006031F7
:10581000CB690A6A0468A468240612D5212B10D12A
:10582000002352240353EFF31083012484F31088E0
:1058300006683468C025AC43346083F310882023A5
:10584000CB6103689B685B0631D5222A2FD10022E9
:105850000024030052331C81EFF31083012484F3EE
:10586000108806683468844D2540356083F31088BD
:10587000EFF31083012484F310880668B4680125CF
:10588000AC43B46083F31088036E012B0BD1EFF3AC
:105890001083012484F31088066834681025AC4313
:1058A000346083F3108820230B620A608A604B6A9D
:1058B00010221A434A62FAF761FC70BD7D5A000853
:1058C000AD59000845570008E1570008095800087D
:1058D000FFFEFFFF00B581B0406A02005232002196
:1058E00011811180FAF74AFC01B000BDC16F212976
:1058F00000D0704710B45221415A002918D1EFF35B
:105900001081012282F310880468226880239A4360
:10591000226081F31088EFF31081012282F3108856
:1059200003681868402202431A6081F310880AE075
:10593000C16C0A7801680A85C16C491CC164522196
:10594000425A521E425210BC7047C16F212900D0EA
:10595000704710B45221415A002918D1EFF3108139
:10596000012282F310880468226880239A4322600F
:1059700081F31088EFF31081012282F3108803680D
:105980001868402202431A6081F310880CE0C16C51
:105990000988CA05D20D01680A85C16C891CC164D9
:1059A0005221425A521E425210BC704770B501003B
:1059B000583102688B6A222B57D1938C8A881A40FF
:1059C000436D1A70426D521C42654A88521E4A80CD
:1059D0004A88002A4DD1EFF31082012383F3108807
:1059E00003681D68244C2C401C6082F31088EFF380
:1059F0001082012383F310880568AB680124A34358
:105A0000AB6082F3108820228A6200220A61CA6099
:105A100003685B681B020AD5EFF3108384F31088D8
:105A200006683468474D2540356083F310888B68DD
:105A3000012B17D18A60EFF31081012282F31088C5
:105A40000268146810239C43146081F31088036873
:105A50001021DA690A4000D019625821415A01F038
:105A6000B4FB70BDFAF77DFB70BD91690820084357
:105A7000906170BD00000000DFFEFFFF70B5010007
:105A8000583102688B6A222B57D1938C8A881A402E
:105A9000436D1A80426D921C42654A88521E4A80AC
:105AA0004A88002A4DD1EFF31082012383F3108836
:105AB00003681D68244C2C401C6082F31088EFF3AF
:105AC0001082012383F310880568AB680124A34387
:105AD000AB6082F3108820228A6200220A61CA60C9
